S01200005265666C6F774F76656E2E737265630B
S1130000C3C00000E1C00000DFC00000DDC000008C
S1130010DBC00000D9C00000D7C00000D5C000007C
S1130020D3C00000D1C00000CFC00000CDC000008C
S1130030CBC00000C9C00000C7C00000C5C000009C
S1130040C3C00000C1C00000BFC00000BDC00000AC
S1130050BBC00000B9C00000B7C00000B5C00000BC
S1130060B3C00000B1C00000AFC00000ADC00000CC
S1130070ABC00000AAC70000A7C00000A5C00000D4
S1130080A3C00000A1C000009FC000009DC00000EC
S11300909BC0000099C0000097C0000095C00000FC
S11300A093C0000091C000008FC000008DC000000C
S11300B08BC0000089C0000087C0000085C000001C
S11300C083C0000081C000007FC000007DC000002C
S11300D07BC0000079C0000077C0000075C000003C
S11300E073C00000E903F303FD03070411041B04B8
S11300F025042F043904430448056105910593053B
S113010095059705990508000000BE922449123E02
S1130110ABAAAA2ABECDCCCC4C3E00000080BEAB1C
S1130120AAAAAA3E00000000BF000000803F000011
S1130130000000084178D3BB4387D1133D190E3C1E
S1130140C3BD4282AD2B3E68EC8276BED98FE1A955
S11301503E4C80EFFFBE01C4FF7F3F000000000063
S113016007634236B79BD8A71A39685618AEBAAB9C
S1130170558C1D3CB7CC5763BD6DEDFD753EF61730
S11301807231BF000000803F11241FBECFEFD1E2C7
S1130190DEBFCDBF00E00CBF12E0A0E0B2E0E6E4B9
S11301A0F7E100E00BBF02C007900D92AA30B1073F
S11301B0D9F722E0AAE0B2E001C01D92AB31B20748
S11301C0E1F7E1D30C94A10B1BCFCF93DF931F92E4
S11301D01F92CDB7DEB79A8389838AE790E02AE736
S11301E030E0F90120812068FC0120838AE790E057
S11301F02AE730E0F90120812860FC01208389810D
S11302009A81FC018085882331F489819A81FC01DB
S11302108185882349F08CE790E02CE730E0F901F0
S113022020812062FC0120838CE790E02CE730E001
S1130230F901408129813A81F901208131812F71AD
S1130240242BFC0120838BE790E02BE730E0F901BD
S1130250408129813A81F9012081318136952795A0
S11302602870242BFC01208300000F900F90DF9155
S1130270CF910895CF93DF93CDB7DEB78AE790E0AF
S11302802AE730E0F90120812064FC01208300008A
S1130290DF91CF910895CF93DF931F921F92CDB733
S11302A0DEB79A8389838AE790E02AE730E0F90190
S11302B020812064FC01208300008AE790E0FC0197
S11302C08081882F90E080719927892BB1F38981EF
S11302D09A81FC018185882361F089E790E0FC0123
S11302E08081282F30E089819A81FC013383228325
S11302F00AC088E790E0FC012081318189819A81DC
S1130300FC013383228300000F900F90DF91CF9183
S11303100895CF93DF9300D000D0CDB7DEB79E838E
S11303208D838D819E8196D0DC01CB0120E030E469
S11303304CE156E4BC01CD01DBD6DC01CB01898361
S11303409A83AB83BC8389819A81AB81BC81BC01D4
S1130350CD010E94C709DC01CB0189839A83AB8359
S1130360BC8320E030E64BE555E469817A818B81DA
S11303709C81BED6DC01CB0189839A83AB83BC8389
S11303802FE03FEC4BE55BE369817A818B819C81B3
S113039047D6DC01CB0189839A83AB83BC83298153
S11303A03A814B815C8160E070E080E89FE3A0D6F5
S11303B0DC01CB0189839A83AB83BC8323E333E9D8
S11303C048E853E469817A818B819C8128D6DC01D9
S11303D0CB0189839A83AB83BC8389819A81AB8166
S11303E0BC81BC01CD0126960FB6F894DEBF0FBECA
S11303F0CDBFDF91CF910895CF93DF9300D000D08C
S1130400CDB7DEB79E838D838D819E81CC01A0E024
S1130410B0E0BC01CD0100D7DC01CB0122E537E21D
S113042040EA5BE3BC01CD01F2D7DC01CB01898357
S11304309A83AB83BC8389819A81AB81BC81BC01E3
S1130440CD0126960FB6F894DEBF0FBECDBFDF9167
S1130450CF910895CF93DF9300D000D0CDB7DEB70E
S11304609E838D838D819E81C7DFDC01CB019C013E
S1130470AD0160E070E583E497E43AD6DC01CB019A
S113048020E030E44CE156E4BC01CD01C8D5DC01E8
S1130490CB0189839A83AB83BC8389819A81AB81A5
S11304A0BC81BC01CD0126960FB6F894DEBF0FBE09
S11304B0CDBFDF91CF910895CF93DF9300D0CDB717
S11304C0DEB79B838A838A819B81FC01828193812D
S11304D0FC01808189838A819B81FC018481982F1E
S11304E0909589818923282F8A819B81FC0120830F
S11304F08981282F20958A819B81FC018481822314
S1130500282F8A819B81FC0121838A819B812981F7
S1130510FC01248300000F900F900F90DF91CF9186
S11305200895CF93DF93CDB7DEB781E091E02FEF4D
S1130530FC01208383E390E023E330E0F901208190
S11305402F61FC0120838AE290E02AE230E0F90185
S113055020812077FC01208384E390E024E330E0D1
S1130560F90120812460FC0120830000DF91CF91F8
S11305700895CF92DF92EF92FF92CF93DF9300D052
S11305801F921F92CDB7DEB79C838B836D8384E368
S113059090E024E330E0F90120812B7FFC012083EB
S11305A080910A02882F90E081309105F9F0823021
S11305B091051CF4892B39F052C08230910549F120
S11305C00397D1F14CC084E390E024E330E0F901D7
S11305D020812E7FFC01208384E390E024E330E03B
S11305E0F90120812D7FFC0120834CC084E390E03D
S11305F024E330E0F90120812160FC01208384E3BD
S113060090E024E330E0F90120812D7FFC01208378
S113061039C084E390E024E330E0F90120812E7FA7
S1130620FC01208384E390E024E330E0F90120819D
S11306302260FC01208326C084E390E024E330E0C0
S1130640F90120812160FC01208384E390E024E30C
S113065030E0F90120812260FC01208313C084E38F
S113066090E024E330E0F90120812E7FFC01208317
S113067084E390E024E330E0F90120812D7FFC0144
S1130680208300008B819C81892B29F460E080E029
S113069081D0898349C08B819C81CC01A0E0B0E0EA
S11306A0BC01CD01B9D56B017C0180910A02882F70
S11306B090E0A0E0B0E0BC01CD01AED5DC01CB01FF
S11306C09C01AD0160E070E080E291E403D7DC01BD
S11306D0CB019C01AD01C701B6010AD5DC01CB01F8
S11306E0BC01CD016DD5DC01CB01982F8DEC989F19
S11306F0812D1124869586958695880F282F220FA3
S1130700220F820FF92FF81B8F2F8A8380910A0200
S11307109D81981729F461E08A813CD0898304C0C3
S113072060E08A8137D0898382E091E022E031E081
S1130730F90130812981232BFC01208382E091E09F
S113074022E031E0F901308129812323FC01208357
S113075084E390E024E330E0F90120812460FC018B
S1130760208380910A02833030F480910A028F5FE3
S113077080930A0202C010920A0200000F900F90A8
S11307800F900F900F90DF91CF91FF90EF90DF903B
S1130790CF900895CF93DF931F921F92CDB7DEB70A
S11307A089836A838981882F90E0092E000CAA0B23
S11307B0BB0B40E050E029E030E0841B950B281788
S11307C0390708F46AC0FC018827EE58FF4F8F4FA1
S11307D0A1C78A81882F90E09695982F88279795AE
S11307E087958F6363C08A81882F90E09695982FB0
S11307F0882797958795866059C08A81882F90E0CD
S11308009695982F8827979587958B654FC08A81F1
S1130810882F90E09695982F8827979587958F64D1
S113082045C08A81882F90E09695982F88279795C0
S1130830879586663BC08A81882F90E09695982F8D
S11308408827979587958D6631C08A81882F90E097
S11308509695982F8827979587958D6727C08A81C5
S1130860882F90E09695982F88279795879587608D
S11308701DC08A81882F90E09695982F8827979598
S113088087958F6713C08A81882F90E09695982F5B
S11308908827979587958F6609C08A81882F90E06D
S11308A09695982F88279795879580640F900F9039
S11308B0DF91CF910895CF93DF9300D0CDB7DEB70A
S11308C069837A838B8385E290E025E230E0F90145
S11308D02081522F2981222F30E0220F331F2295AD
S11308E03295307F3227207F3227422F2A81222FD0
S11308F030E000243695279507943695279507947C
S1130900322F202D422B2B81222F30E03695322F8F
S1130910222737952795242B252BFC01208385E25C
S113092090E025E230E0F9012081522F2981222F25
S113093030E0220F331F22953295307F3227207FFB
S11309403227422F2A81222F30E000243695279522
S11309500794369527950794322F202D422B2B810F
S1130960222F30E03695322F222737952795242BD6
S11309702F612523FC01208300000F900F900F901E
S1130980DF91CF910895CF93DF93CDB7DEB763970F
S11309900FB6F894DEBF0FBECDBF25E0CE010F9693
S11309A0FC01322F11923A95E9F783E091E09A8B9A
S11309B0898B109218021092170282E090E09093B3
S11309C00E0280930D028DE092E0FFDBAADD7894A5
S11309D084E390E024E330E0F90120812061FC010C
S11309E0208384E290E020E1FC012083CE010F9675
S11309F063DD8F85882F90E081709927892B91F092
S1130A008091170290911802892B61F481E090E0A3
S1130A10909318028093170280E197E290931A0250
S1130A20809319028F85882F90E082709927892BF3
S1130A3031F086E090E090931802809317028DE0E5
S1130A4092E029DC80910F029091100262DCDC01BB
S1130A50CB018093110290931202A0931302B093DE
S1130A6014028091170290911802CC01A0E0B0E02A
S1130A7040E050E026E030E0841B950B281739074E
S1130A8008F459C0FC018827E458FF4F8F4F42C631
S1130A9080E197E290931A028093190284E390E034
S1130AA024E330E0F90120812F7EFC012083809132
S1130AB0030290910402A0910502BC018A2FFBDE7F
S1130AC03BC084E390E024E330E0F901208120611D
S1130AD0FC0120838091190290911A02892BD1F094
S1130AE08091190290911A02019790931A028093AF
S1130AF019028091190290911A029C01ADECBCEC90
S1130B0011D696958795969587959695879564E0E1
S1130B1030DD12C082E090E09093180280931702B7
S1130B200BC077D009C0CED007C039D105C087D15A
S1130B3003C0D7D101C0000080E090E0A0E8BFE38B
S1130B4089839A83AB83BC8320E030E04AE755E491
S1130B5069817A818B819C815AD4DC01CB018D839C
S1130B609E83AF83B88720E030E040E85FE36D8187
S1130B707E818F819885B8D288232CF481E090E01F
S1130B809A8789873BC020E03FEF4FE757E46D81A8
S1130B907E818F819885F2D318163CF520E030E0F1
S1130BA040E251E469817A818B819C8130D4DC01FB
S1130BB0CB01BC01CD0104D3DC01CB019A87898729
S1130BC00FC080E991E09C878B878B859C8501977A
S1130BD0F1F79C878B8789859A8501979A878987FE
S1130BE089859A85892B69F713C06D817E818F81F0
S1130BF09885E6D2DC01CB019A87898789859A8515
S1130C009E878D878D859E850197F1F79E878D87B9
S1130C10EDCECF93DF93CDB7DEB7809100029091F4
S1130C200102A0910202BC018A2F45DE84E390E018
S1130C3024E330E0F90120812F7EFC01208385E24A
S1130C4090E025E230E0F90120812061FC0120835D
S1130C508091110290911202A0911302B09114029A
S1130C6020E030E048EC52E4BC01CD01D0D3DC01FB
S1130C70CB01BC01CD01A4D2DC01CB0162E079DC63
S1130C808091110290911202A0911302B09114026A
S1130C9020E030E044E152E4BC01CD016FD388236D
S1130CA00CF40CC080E197E290931A02809319022D
S1130CB083E090E090931802809317020000DF9184
S1130CC0CF910895CF93DF93CDB7DEB784E390E05F
S1130CD024E330E0F90120812061FC01208380912C
S1130CE0190290911A02892B09F44FC080911902BC
S1130CF090911A02019790931A028093190280919D
S1130D00190290911A029C01ADECBCEC0BD596959E
S1130D108795969587959695879564E02ADC8091CA
S1130D20110290911202A0911302B091140220E0DA
S1130D3030E044E152E4BC01CD01D6D118164CF0A8
S1130D4085E290E025E230E0F90120812061FC0198
S1130D5020838091110290911202A0911302B0910C
S1130D60140220E030E040E252E4BC01CD0106D39D
S1130D7018160CF010C085E290E025E230E0F9018D
S1130D8020812F7EFC01208306C084E090E09093B4
S1130D901802809317020000DF91CF910895CF933A
S1130DA0DF93CDB7DEB784E390E024E330E0F901CC
S1130DB020812F7EFC01208385E290E025E230E053
S1130DC0F90120812061FC0120838091110290911E
S1130DD01202A0911302B091140220E030E048EC1A
S1130DE052E4BC01CD0113D3DC01CB01BC01CD0124
S1130DF0E7D1DC01CB0162E0BCDB80911102909170
S1130E001202A0911302B091140220E030E044E3F6
S1130E1052E4BC01CD01B2D288230CF40CC080E1B1
S1130E2097E290931A028093190285E090E09093E0
S1130E301802809317020000DF91CF910895CF9399
S1130E40DF93CDB7DEB784E390E024E330E0F9012B
S1130E5020812061FC0120838091190290911A0263
S1130E60892BA9F18091190290911A02019790930C
S1130E701A02809319028091190290911A029C011E
S1130E80ADECBCEC4FD49695879596958795969541
S1130E90879564E06EDB8091110290911202A0911B
S1130EA01302B091140220E030E044E352E4BC01A8
S1130EB0CD011AD188230CF010C085E290E025E220
S1130EC030E0F90120812061FC01208306C086E026
S1130ED090E090931802809317020000DF91CF9165
S1130EE00895CF93DF93CDB7DEB78091060290913A
S1130EF00702A0910802BC018A2FDDDC84E390E0A4
S1130F0024E330E0F90120812F7EFC01208385E277
S1130F1090E025E230E0F90120812F7EFC0120835E
S1130F208091110290911202A0911302B0911402C7
S1130F3020E030E048EC52E4BC01CD0168D2DC0191
S1130F40CB01BC01CD013CD1DC01CB0162E011DB62
S1130F508091110290911202A0911302B091140297
S1130F6020E030E040EF51E4BC01CD0107D28823FA
S1130F703CF480910B0290910C028131974250F421
S1130F8080910B0290910C02019690930C02809335
S1130F900B0217C08091030290910402A0910502F4
S1130FA0BC018A2F88DC82E091E0FC01108210925F
S1130FB018021092170280E197E290931A0280932C
S1130FC019020000DF91CF9108951F920F920090B3
S1130FD05F000F92112400905B000F928F939F93F8
S1130FE0EF93FF93CF93DF93CDB7DEB788E790E01D
S1130FF0FC01808191819093100280930F02000084
S1131000DF91CF91FF91EF919F918F910F9000927B
S11310105B000F9000925F000F901F90189550583E
S1131020BB27AA270ED070C161D130F066D120F061
S113103031F49F3F11F41EF456C10EF4E095E7FB22
S11310404CC1E92F72D180F3BA1762077307840782
S1131050950718F071F49EF58AC10EF4E0950B2EF5
S1131060BA2FA02D0B01B90190010C01CA01A001F6
S11310701124FF27591B99F0593F50F4503E68F151
S11310801A16F040A22F232F342F4427585FF3CF92
S1131090469537952795A795F0405395C9F77EF463
S11310A01F16BA0B620B730B840BBAF09150A1F0AC
S11310B0FF0FBB1F661F771F881FC2F70EC0BA0F32
S11310C0621F731F841F48F4879577956795B795BA
S11310D0F7959E3F08F0B3CF9395880F08F09927B2
S11310E0EE0F979587950895D4D008F481E008957C
S11310F00CD00AC102D140F0F9D030F021F45F3FA6
S113110019F0EBC0511134C1EEC00FD198F39923FB
S1131110C9F35523B1F3951B550BBB27AA276217B7
S11311207307840738F09F5F5F4F220F331F441FFC
S1131130AA1FA9F333D00E2E3AF0E0E830D0915034
S11311405040E695001CCAF729D0FE2F27D0660F21
S1131150771F881FBB1F261737074807AB07B0E860
S113116009F0BB0B802DBF01FF2793585F4F2AF076
S11311709E3F510568F0B1C0FBC05F3FECF3983E61
S1131180DCF3869577956795B795F7959F5FC9F7D3
S1131190880F911D9695879597F90895E1E0660F5C
S11311A0771F881FBB1F621773078407BA0720F0D5
S11311B0621B730B840BBA0BEE1F88F7E09508953E
S11311C0BCD088F09F5790F0B92F9927B751A0F061
S11311D0D1F0660F771F881F991F1AF0BA95C9F7C7
S11311E012C0B13081F0C3D0B1E00895C0C0672F00
S11311F0782F8827B85F39F0B93FCCF38695779577
S11312006795B395D9F73EF490958095709561955F
S11312107F4F8F4F9F4F0895E89409C097FB3EF48A
S113122090958095709561957F4F8F4F9F4F99232F
S1131230A9F0F92F96E9BB279395F69587957795AD
S11312406795B795F111F8CFFAF4BB0F11F460FF6D
S11312501BC06F5F7F4F8F4F9F4F16C0882311F0C5
S113126096E911C0772321F09EE8872F762F05C0D9
S1131270662371F096E8862F70E060E02AF09A9574
S1131280660F771F881FDAF7880F9695879597F969
S11312900895990F0008550FAA0BE0E8FEEF161603
S11312A01706E807F907C0F012161306E407F50756
S11312B098F0621B730B840B950B39F40A2661F0CA
S11312C0232B242B252B21F408950A2609F4A1406D
S11312D0A6958FEF811D811D089597F99F6780E87A
S11312E070E060E008959FEF80EC089500240A9474
S11312F01616170618060906089500240A941216ED
S11313001306140605060895092E0394000C11F41F
S1131310882352F0BB0F40F4BF2B11F460FF04C0CC
S11313206F5F7F4F8F4F9F4F089557FD9058440F25
S1131330551F59F05F3F71F04795880F97FB991F30
S113134061F09F3F79F087950895121613061406ED
S1131350551FF2CF4695F1DF08C01616170618067A
S1131360991FF1CF86957105610508940895E89455
S1131370BB2766277727CB0197F908958ADF08F4FE
S11313808FEF08950EF023C1AECF6894A6CFD5DFBA
S1131390C8F39923D1F3C6F3DF93CF931F930F932D
S11313A0FF92C92FDD2788232AF02197660F771F24
S11313B0881FDAF720E030E040E85FEB9FE38839EC
S11313C020F0803E30F021968F772ADEE6E0F1E0CF
S11313D003C026DEE3E3F1E008D18B01BE01EC019A
S11313E0FB2E6F5771097595771F880B990B16DFC4
S11313F028E132E741E35FE316D0AF2D9801AE0157
S1131400FF900F911F91CF91DF911BDE7DCF0BD009
S11314107BCF6CDF28F071DF18F0952309F05DCFE6
S113142062CF1124A5CF81DFA0F3959FD1F3950F4F
S113143050E0551F629FF001729FBB27F00DB11D54
S1131440639FAA27F00DB11DAA1F649F6627B00DE4
S1131450A11D661F829F2227B00DA11D621F739FCD
S1131460B00DA11D621F839FA00D611D221F749FDB
S11314703327A00D611D231F849F600D211D822F22
S1131480762F6A2F11249F5750408AF0E1F0882369
S11314904AF0EE0FFF1FBB1F661F771F881F915076
S11314A05040A9F79E3F510570F017CF61CF5F3FC1
S11314B0ECF3983EDCF3869577956795B795F795A9
S11314C0E7959F5FC1F7FE2B880F911D9695879531
S11314D097F90895FA01EE0FFF1F309621053105A3
S11314E099F16115710561F48038BFE39B0749F1F7
S11314F068949038810561F08038BFEF9B0741F014
S1131500992342F5FF3FE1053105210511F1E894E6
S11315100894E795D901AA2329F4AB2FBE2FF85FCD
S1131520D0F310C0FF5F70F4A695E0F7F73950F0E0
S113153019F0FF3A38F49F779F930CD00F9007FC73
S1131540905808953EF0CFCE60E070E080E89FE3CD
S113155008954FE79F775F934F933F932F9317DF40
S11315602F913F914F915F9152DF05C019F40EF016
S1131570B4CEFDCEB8CEE1DEC8F39638C0F707F896
S11315800F92E8942BE33AEA48EB5FE74EDF0F92C1
S11315900F920F924DB75EB70F9289D0E0E6F1E05B
S11315A024D04F915F91EF91FF91E595EE1FFF1FBE
S11315B049F0FE57E0684427EE0F441FFA95E1F71F
S11315C04195550B40D00F9007FE34C008959F3FBE
S11315D031F0915020F4879577956795B795880FEA
S11315E0911D9695879597F90895DF93CF931F934F
S11315F00F93FF92EF92DF927B018C01689405C0F8
S1131600DA2EEF0110DFFE01E894A59125913591C2
S113161045915591AEF3EF0114DDFE019701A80148
S1131620DA9479F7DF90EF90FF900F911F91CF91AB
S1131630DF9108959B01AC0160E070E080E89FE3D6
S113164057CD4BCEC4CF79DEE8F39923D9F3940F69
S1131650511DBBF39150504094F059F0882332F05F
S1131660660F771F881F91505040C1F79E3F510568
S113167044F7880F911D9695879597F908955F3FD4
S1131680ACF0983E9CF0BB27869577956795B79507
S113169008F4B1609395C1F7BB0F58F711F460FFDC
S11316A0E8CF6F5F7F4F8F4F9F4FE3CF61CEFA013B
S11316B0DC01AA0FBB1F9B01AC01BF5728F42227F2
S11316C03327442750781FC0B75188F4AB2F002428
S11316D0469537952795011CA395D2F3002069F010
S11316E0220F331F441FB395DAF30DD098CC613029
S11316F07105A0E88A07B94630F49B01AC0166275E
S1131700772788279078309621F02083318342838D
S113171053830895EE0FFF1F881F8BBF0790F69128
S1131720E02D1994A29FB001B39FC001A39F700D37
S1131730811D1124911DB29F700D811D1124911DD5
S10917400895F894FFCFA8
S10D17460100000001000000010092
S9030000FC
