S010000053746F70707568722E73726563AF
S1130000BCC00000CCC00000CAC00000C8C00000D2
S1130010C6C00000C4C00000C2C00000C0C00000D0
S1130020BEC00000BCC00000BAC00000B8C00000E0
S1130030B6C00000B4C00000B2C00000B0C00000F0
S1130040AEC00000ACC00000AAC00000A8C0000000
S1130050A6C00000A4C00000A2C00000A0C0000010
S11300609EC000009CC000009AC0000098C0000020
S113007096C0000094C0000092C0000090C0000030
S11300808EC000008CC000008AC0000088C0000040
S113009086C0000084C0000082C0000080C0000050
S11300A07EC000007CC000007AC0000078C0000060
S11300B076C0000074C0000072C0000070C0000070
S11300C06EC000006CC000006AC0000068C0000080
S11300D066C0000064C0000062C0000060C0000090
S11300E05EC00000CC02CE02D002D202D402D602FC
S11300F0D802DA02DC02DE0207634236B79BD8A7D5
S11301001A39685618AEBAAB558C1D3CB7CC576338
S1130110BD6DEDFD753EF6177231BF000000803FE6
S113012008000000BE922449123EABAAAA2ABECD02
S1130130CCCC4C3E00000080BEABAAAAAA3E000074
S11301400000BF000000803F00000000000841786C
S1130150D3BB4387D1133D190E3CC3BD4282AD2BA3
S11301603E68EC8276BED98FE1A93E4C80EFFFBE9B
S113017001C4FF7F3F000000000011241FBECFEF29
S1130180D1E2DEBFCDBF00E00CBF22E0A0E0B2E0D0
S113019001C01D92A130B207E1F702D0CEC530CF25
S11301A0CF93DF93CDB7DEB767970FB6F894DEBF72
S11301B00FBECDBF1C821B8225E0CE014396FC01FD
S11301C0322F11923A95E9F783E091E09E8B8D8B63
S11301D083E390E02FEFFC01208381E091E02FEF97
S11301E0FC01208384E091E0FC01108284E390E030
S11301F024E330E0F90120812061FC01208384E3C1
S113020090E024E330E0F90120812460FC012083A4
S11302108B89882F90E081709927892B31F081E0B8
S11302209981992309F080E089838B89882F90E054
S113023082709927892B19F01C821B8219828B8169
S11302409C81892B21F480E090E088D003C08B81CD
S11302509C8184D08B819C818F30974278F48981F2
S1130260882361F08A81882339F01A828B819C81EA
S113027001969C838B8302C081E08A83CE014396DE
S1130280A4D180E090E0A0EAB0E48D839E83AF83A4
S1130290B88720E030E04AE755E46D817E818F81A4
S11302A0988516D3DC01CB0189879A87AB87BC87F5
S11302B020E030E040E85FE369857A858B859C85A2
S11302C0B9D188232CF481E090E09E878D873BC0D0
S11302D020E03FEF4FE757E469857A858B859C855D
S11302E0F3D218163CF520E030E040E251E46D8191
S11302F07E818F819885ECD2DC01CB01BC01CD01DC
S113030005D2DC01CB019E878D870FC080E991E087
S1130310988B8F878F8598890197F1F7988B8F87B2
S11303208D859E8501979E878D878D859E85892BDA
S113033069F713C069857A858B859C85E7D1DC01D3
S1130340CB019E878D878D859E859A8B898B898924
S11303509A890197F1F79A8B898B5ACFCF92DF92C2
S1130360EF92FF92CF93DF9300D01F92CDB7DEB709
S11303709C838B8380910002882F90E081309105CB
S1130380F9F0823091051CF4892B39F052C0823087
S1130390910549F10397D1F14CC084E390E024E343
S11303A030E0F90120812E7FFC01208384E390E07A
S11303B024E330E0F90120812D7FFC0120834CC02F
S11303C084E390E024E330E0F90120812160FC0122
S11303D0208384E390E024E330E0F90120812D7F41
S11303E0FC01208339C084E390E024E330E0F90188
S11303F020812E7FFC01208384E390E024E330E01D
S1130400F90120812260FC01208326C084E390E06E
S113041024E330E0F90120812160FC01208384E39E
S113042090E024E330E0F90120812260FC01208384
S113043013C084E390E024E330E0F90120812E7FAF
S1130440FC01208384E390E024E330E0F90120817F
S11304502D7FFC01208300008B819C81892B21F45A
S113046080E07ED089833EC08B819C81CC01A0E05A
S1130470B0E0BC01CD0176D16B017C01809100021A
S1130480882F90E0A0E0B0E0BC01CD016BD1DC018D
S1130490CB019C01AD0160E070E080E291E47BD28D
S11304A0DC01CB019C01AD01C701B601C7D0DC0161
S11304B0CB01BC01CD012AD1DC01CB01982F8DECFD
S11304C0989F812D1124869586958695880F282FCF
S11304D0220F220F820FF92FF81B8F2F8A838A8114
S11304E03FD0898384E390E024E330E0F901208164
S11304F02B7FFC01208382E091E022E031E0F901CE
S113050030812981232BFC01208382E091E022E0C9
S113051031E0F901308129812323FC01208384E324
S113052090E024E330E0F90120812460FC01208381
S113053080910002833030F4809100028F5F8093B9
S1130540000202C01092000200000F900F900F9062
S11305500F90DF91CF91FF90EF90DF90CF900895AF
S1130560CF93DF931F92CDB7DEB789838981882F1C
S113057090E0092E000CAA0BBB0B40E050E029E0F0
S113058030E0841B950B28173907D0F0FC0188272D
S1130590EE58FF4F8F4FC9C38FE313C086E011C0DD
S11305A08BE50FC08FE40DC086E60BC08DE609C055
S11305B08DE707C087E005C08FE703C08FE601C061
S11305C080E40F90DF91CF910895CF93DF9300D013
S11305D0CDB7DEB79B838A838A819B81FC018281AC
S11305E09381FC01808189838A819B81FC018481C0
S11305F0982F909589818923282F8A819B81FC01DA
S113060020838981282F20958A819B81FC01848104
S11306108223282F8A819B81FC0121838A819B81EB
S11306202981FC01248300000F900F900F90DF912B
S1130630CF910895D4D008F481E008950CD00AC174
S113064002D140F0F9D030F021F45F3F19F0EBC053
S1130650511134C1EEC00FD198F39923C9F3552336
S1130660B1F3951B550BBB27AA27621773078407A1
S113067038F09F5F5F4F220F331F441FAA1FA9F357
S113068033D00E2E3AF0E0E830D091505040E69549
S1130690001CCAF729D0FE2F27D0660F771F881FAA
S11306A0BB1F261737074807AB07B0E809F0BB0B99
S11306B0802DBF01FF2793585F4F2AF09E3F5105BD
S11306C068F0B1C0FBC05F3FECF3983EDCF3869565
S11306D077956795B795F7959F5FC9F7880F911D33
S11306E09695879597F90895E1E0660F771F881F1F
S11306F0BB1F621773078407BA0720F0621B730BD2
S1130700840BBA0BEE1F88F7E0950895BCD088F0EF
S11307109F5790F0B92F9927B751A0F0D1F0660FE9
S1130720771F881F991F1AF0BA95C9F712C0B13004
S113073081F0C3D0B1E00895C0C0672F782F882717
S1130740B85F39F0B93FCCF3869577956795B39543
S1130750D9F73EF490958095709561957F4F8F4FB2
S11307609F4F0895E89409C097FB3EF490958095B7
S1130770709561957F4F8F4F9F4F9923A9F0F92F63
S113078096E9BB279395F695879577956795B795E1
S1130790F111F8CFFAF4BB0F11F460FF1BC06F5FC7
S11307A07F4F8F4F9F4F16C0882311F096E911C0D9
S11307B0772321F09EE8872F762F05C0662371F0FA
S11307C096E8862F70E060E02AF09A95660F771F0E
S11307D0881FDAF7880F9695879597F90895990FEA
S11307E00008550FAA0BE0E8FEEF16161706E807F7
S11307F0F907C0F012161306E407F50798F0621B18
S1130800730B840B950B39F40A2661F0232B242BEC
S1130810252B21F408950A2609F4A140A6958FEF0B
S1130820811D811D089597F99F6780E870E060E05D
S113083008959FEF80EC089500240A941616170675
S113084018060906089500240A94121613061406BD
S113085005060895092E0394000C11F4882352F020
S1130860BB0F40F4BF2B11F460FF04C06F5F7F4FD8
S11308708F4F9F4F089557FD9058440F551F59F0BF
S11308805F3F71F04795880F97FB991F61F09F3F79
S113089079F087950895121613061406551FF2CFA2
S11308A04695F1DF08C0161617061806991FF1CFF2
S11308B086957105610508940895E894BB27662719
S11308C07727CB0197F908958ADF08F48FEF08950D
S11308D00BD0C0CFB1DF28F0B6DF18F0952309F0B4
S11308E0A2CFA7CF1124EACFC6DFA0F3959FD1F3FF
S11308F0950F50E0551F629FF001729FBB27F00DCA
S1130900B11D639FAA27F00DB11DAA1F649F66271E
S1130910B00DA11D661F829F2227B00DA11D621F6D
S1130920739FB00DA11D621F839FA00D611D221F27
S1130930749F3327A00D611D231F849F600D211D0B
S1130940822F762F6A2F11249F5750408AF0E1F0AE
S113095088234AF0EE0FFF1FBB1F661F771F881FF7
S113096091505040A9F79E3F510570F05CCFA6CF3F
S11309705F3FECF3983EDCF3869577956795B795E2
S1130980F795E7959F5FC1F7FE2B880F911D96950C
S1130990879597F90895FA01EE0FFF1F3096210508
S11309A0310599F16115710561F48038BFE39B0746
S11309B049F168949038810561F08038BFEF9B0756
S11309C041F0992342F5FF3FE1053105210511F17D
S11309D0E8940894E795D901AA2329F4AB2FBE2FF4
S11309E0F85FD0F310C0FF5F70F4A695E0F7F73915
S11309F050F019F0FF3A38F49F779F930CD00F9082
S1130A0007FC905808953EF014CF60E070E080E851
S1130A109FE308954FE79F775F934F933F932F93FF
S1130A209ED02F913F914F915F9152DF05C019F4F1
S1130A300EF0F9CE42CFFDCE26DFC8F39638C0F7CC
S1130A4007F80F92E8942BE33AEA48EB5FE74EDFAE
S1130A500F920F920F924DB75EB70F92C0D0E8EF8E
S1130A60F0E016D04F915F91EF91FF91E595EE1F65
S1130A70FF1F49F0FE57E0684427EE0F441FFA9524
S1130A80E1F74195550B32D00F9007FE26C008952B
S1130A90DF93CF931F930F93FF92EF92DF927B012B
S1130AA08C01689405C0DA2EEF011EDFFE01E89484
S1130AB0A5912591359145915591AEF3EF01D4D08F
S1130AC0FE019701A801DA9479F7DF90EF90FF9087
S1130AD00F911F91CF91DF9108959B01AC0160E0CC
S1130AE070E080E89FE3AACD9ECE11C1CCDEE8F38E
S1130AF09923D9F3940F511DBBF39150504094F0B6
S1130B0059F0882332F0660F771F881F91505040A8
S1130B10C1F79E3F510544F7880F911D969587951F
S1130B2097F908955F3FACF0983E9CF0BB278695FB
S1130B3077956795B79508F4B1609395C1F7BB0FA6
S1130B4058F711F460FFE8CF6F5F7F4F8F4F9F4FCF
S1130B50E3CFB4CE0EF0DBC06CCE689464CE93DEEB
S1130B60C8F39923D1F3C6F3DF93CF931F930F9365
S1130B70FF92C92FDD2788232AF02197660F771F5C
S1130B80881FDAF720E030E040E85FEB9FE3883924
S1130B9020F0803E30F021968F7755D0E0E2F1E0EE
S1130BA003C051D0EDE4F1E073DF8B01BE01EC0131
S1130BB0FB2E6F5771097595771F880B990BD4DD40
S1130BC028E132E741E35FE38FDEAF2D9801AE0108
S1130BD0FF900F911F91CF91DF9146D03BCEFA0148
S1130BE0DC01AA0FBB1F9B01AC01BF5728F42227CD
S1130BF03327442750781FC0B75188F4AB2F002403
S1130C00469537952795011CA395D2F3002069F0EA
S1130C10220F331F441FB395DAF30DD013C0613094
S1130C207105A0E88A07B94630F49B01AC01662738
S1130C30772788279078309621F020833183428368
S1130C40538308955058BB27AA270ED003CEF4DD52
S1130C5030F0F9DD20F031F49F3F11F41EF4E9CDBA
S1130C600EF4E095E7FBDFCDE92F05DE80F3BA173C
S1130C70620773078407950718F071F49EF51DCE7B
S1130C800EF4E0950B2EBA2FA02D0B01B9019001A3
S1130C900C01CA01A0011124FF27591B99F0593FE7
S1130CA050F4503E68F11A16F040A22F232F342F2F
S1130CB04427585FF3CF469537952795A795F0407D
S1130CC05395C9F77EF41F16BA0B620B730B840B92
S1130CD0BAF09150A1F0FF0FBB1F661F771F881F4A
S1130CE0C2F70EC0BA0F621F731F841F48F48795A2
S1130CF077956795B795F7959E3F08F0B3CF939591
S1130D00880F08F09927EE0F9795879508959F3FD0
S1130D1031F0915020F4879577956795B795880FB2
S1130D20911D9695879597F90895EE0FFF1F881FDB
S1110D308BBF0790F691E02D1994F894FFCF35
S9030000FC
